8=FIX.4.4|9=90|35=A|34=1|49=EXECUTOR3|52=20130830-03:24:50.976|56=BVMF2|95=6|96=PMANQE|98=0|108=30|141=Y|10=129|
8=FIX.4.4|9=75|35=A|34=1|49=BVMF2|52=20130830-03:24:51.078|56=EXECUTOR3|98=0|108=30|141=Y|10=045|
