8=FIX.4.4|9=90|35=A|34=1|49=EXECUTOR3|52=20130830-03:24:50.976|56=BVMF2|95=6|96=PMANQE|98=0|108=30|141=Y|10=129|
8=FIX.4.4|9=75|35=A|34=1|49=BVMF2|52=20130830-03:24:51.078|56=EXECUTOR3|98=0|108=30|141=Y|10=045|
8=FIX.4.4|9=90|35=A|34=1|49=EXECUTOR3|52=20130830-03:39:55.880|56=BVMF2|95=6|96=PMANQE|98=0|108=30|141=Y|10=134|
8=FIX.4.4|9=75|35=A|34=1|49=BVMF2|52=20130830-03:39:55.969|56=EXECUTOR3|98=0|108=30|141=Y|10=064|
8=FIX.4.4|9=57|35=0|34=2|49=BVMF2|52=20130830-03:40:26.286|56=EXECUTOR3|10=216|
8=FIX.4.4|9=57|35=0|34=2|49=EXECUTOR3|52=20130830-03:40:26.308|56=BVMF2|10=211|
8=FIX.4.4|9=57|35=0|34=3|49=EXECUTOR3|52=20130830-03:40:56.829|56=BVMF2|10=223|
8=FIX.4.4|9=57|35=0|34=3|49=BVMF2|52=20130830-03:40:56.858|56=EXECUTOR3|10=225|
8=FIX.4.4|9=57|35=0|34=4|49=EXECUTOR3|52=20130830-03:41:26.829|56=BVMF2|10=222|
8=FIX.4.4|9=57|35=0|34=4|49=BVMF2|52=20130830-03:41:26.877|56=EXECUTOR3|10=225|
8=FIX.4.4|9=90|35=A|34=1|49=EXECUTOR3|52=20131011-01:28:27.348|56=BVMF2|95=6|96=PMANQE|98=0|108=30|141=Y|10=120|
8=FIX.4.4|9=75|35=A|34=1|49=BVMF2|52=20131011-01:28:27.487|56=EXECUTOR3|98=0|108=30|141=Y|10=046|
8=FIX.4.4|9=57|35=0|34=2|49=BVMF2|52=20131011-01:28:57.524|56=EXECUTOR3|10=211|
8=FIX.4.4|9=57|35=0|34=2|49=EXECUTOR3|52=20131011-01:28:57.529|56=BVMF2|10=216|
8=FIX.4.4|9=57|35=0|34=3|49=EXECUTOR3|52=20131011-01:29:28.274|56=BVMF2|10=213|
8=FIX.4.4|9=57|35=0|34=3|49=BVMF2|52=20131011-01:29:28.338|56=EXECUTOR3|10=214|
8=FIX.4.4|9=57|35=0|34=4|49=EXECUTOR3|52=20131011-01:29:58.275|56=BVMF2|10=218|
8=FIX.4.4|9=57|35=0|34=4|49=BVMF2|52=20131011-01:29:58.522|56=EXECUTOR3|10=213|
8=FIX.4.4|9=57|35=0|34=5|49=EXECUTOR3|52=20131011-01:30:28.275|56=BVMF2|10=208|
8=FIX.4.4|9=57|35=0|34=5|49=BVMF2|52=20131011-01:30:28.523|56=EXECUTOR3|10=204|
8=FIX.4.4|9=57|35=0|34=6|49=EXECUTOR3|52=20131011-01:30:58.275|56=BVMF2|10=212|
8=FIX.4.4|9=57|35=0|34=6|49=BVMF2|52=20131011-01:30:58.523|56=EXECUTOR3|10=208|
8=FIX.4.4|9=57|35=0|34=7|49=BVMF2|52=20131011-01:31:28.523|56=EXECUTOR3|10=207|
8=FIX.4.4|9=57|35=0|34=7|49=EXECUTOR3|52=20131011-01:31:28.525|56=BVMF2|10=209|
8=FIX.4.4|9=57|35=0|34=8|49=EXECUTOR3|52=20131011-01:31:59.275|56=BVMF2|10=216|
8=FIX.4.4|9=57|35=0|34=8|49=BVMF2|52=20131011-01:31:59.277|56=EXECUTOR3|10=218|
8=FIX.4.4|9=57|35=0|34=9|49=BVMF2|52=20131011-01:32:29.523|56=EXECUTOR3|10=211|
8=FIX.4.4|9=57|35=0|34=9|49=EXECUTOR3|52=20131011-01:32:29.525|56=BVMF2|10=213|
8=FIX.4.4|9=58|35=0|34=10|49=EXECUTOR3|52=20131011-01:33:00.274|56=BVMF2|10=245|
8=FIX.4.4|9=58|35=0|34=10|49=BVMF2|52=20131011-01:33:00.277|56=EXECUTOR3|10=248|
8=FIX.4.4|9=58|35=0|34=11|49=EXECUTOR3|52=20131011-01:33:30.323|56=BVMF2|10=244|
8=FIX.4.4|9=58|35=0|34=11|49=BVMF2|52=20131011-01:33:30.326|56=EXECUTOR3|10=247|
8=FIX.4.4|9=58|35=0|34=12|49=BVMF2|52=20131011-01:34:00.589|56=EXECUTOR3|10=001|
8=FIX.4.4|9=58|35=0|34=12|49=EXECUTOR3|52=20131011-01:34:00.613|56=BVMF2|10=245|
8=FIX.4.4|9=58|35=0|34=13|49=EXECUTOR3|52=20131011-01:34:31.275|56=BVMF2|10=254|
8=FIX.4.4|9=58|35=0|34=13|49=BVMF2|52=20131011-01:34:31.277|56=EXECUTOR3|10=000|
8=FIX.4.4|9=58|35=0|34=14|49=BVMF2|52=20131011-01:35:01.524|56=EXECUTOR3|10=250|
8=FIX.4.4|9=58|35=0|34=14|49=EXECUTOR3|52=20131011-01:35:01.722|56=BVMF2|10=250|
8=FIX.4.4|9=58|35=0|34=15|49=EXECUTOR3|52=20131011-01:35:32.274|56=BVMF2|10=001|
8=FIX.4.4|9=58|35=0|34=15|49=BVMF2|52=20131011-01:35:32.348|56=EXECUTOR3|10=003|
8=FIX.4.4|9=58|35=0|34=16|49=EXECUTOR3|52=20131011-01:36:02.275|56=BVMF2|10=001|
8=FIX.4.4|9=58|35=0|34=16|49=BVMF2|52=20131011-01:36:02.522|56=EXECUTOR3|10=252|
8=FIX.4.4|9=58|35=0|34=17|49=BVMF2|52=20131011-01:36:32.523|56=EXECUTOR3|10=001|
8=FIX.4.4|9=58|35=0|34=17|49=EXECUTOR3|52=20131011-01:36:32.525|56=BVMF2|10=003|
8=FIX.4.4|9=58|35=0|34=18|49=BVMF2|52=20131011-01:37:02.523|56=EXECUTOR3|10=000|
8=FIX.4.4|9=58|35=0|34=18|49=EXECUTOR3|52=20131011-01:37:02.525|56=BVMF2|10=002|
8=FIX.4.4|9=58|35=0|34=19|49=BVMF2|52=20131011-01:37:32.524|56=EXECUTOR3|10=005|
8=FIX.4.4|9=58|35=0|34=19|49=EXECUTOR3|52=20131011-01:37:32.526|56=BVMF2|10=007|
8=FIX.4.4|9=58|35=0|34=20|49=EXECUTOR3|52=20131011-01:38:03.275|56=BVMF2|10=255|
8=FIX.4.4|9=58|35=0|34=20|49=BVMF2|52=20131011-01:38:03.277|56=EXECUTOR3|10=001|
8=FIX.4.4|9=58|35=0|34=21|49=BVMF2|52=20131011-01:38:33.522|56=EXECUTOR3|10=254|
8=FIX.4.4|9=58|35=0|34=21|49=EXECUTOR3|52=20131011-01:38:33.524|56=BVMF2|10=000|
8=FIX.4.4|9=58|35=0|34=22|49=BVMF2|52=20131011-01:39:03.522|56=EXECUTOR3|10=253|
8=FIX.4.4|9=58|35=0|34=22|49=EXECUTOR3|52=20131011-01:39:03.524|56=BVMF2|10=255|
8=FIX.4.4|9=58|35=0|34=23|49=BVMF2|52=20131011-01:39:33.579|56=EXECUTOR3|10=013|
8=FIX.4.4|9=58|35=0|34=23|49=EXECUTOR3|52=20131011-01:39:33.585|56=BVMF2|10=010|
8=FIX.4.4|9=58|35=0|34=24|49=EXECUTOR3|52=20131011-01:40:04.274|56=BVMF2|10=252|
8=FIX.4.4|9=58|35=0|34=24|49=BVMF2|52=20131011-01:40:04.374|56=EXECUTOR3|10=253|
8=FIX.4.4|9=58|35=0|34=25|49=EXECUTOR3|52=20131011-01:40:34.275|56=BVMF2|10=001|
8=FIX.4.4|9=58|35=0|34=25|49=BVMF2|52=20131011-01:40:34.522|56=EXECUTOR3|10=252|
8=FIX.4.4|9=58|35=0|34=26|49=BVMF2|52=20131011-01:41:04.523|56=EXECUTOR3|10=252|
8=FIX.4.4|9=58|35=0|34=26|49=EXECUTOR3|52=20131011-01:41:04.526|56=BVMF2|10=255|
8=FIX.4.4|9=58|35=0|34=27|49=EXECUTOR3|52=20131011-01:41:35.275|56=BVMF2|10=005|
8=FIX.4.4|9=58|35=0|34=27|49=BVMF2|52=20131011-01:41:35.277|56=EXECUTOR3|10=007|
8=FIX.4.4|9=58|35=0|34=28|49=BVMF2|52=20131011-01:42:05.523|56=EXECUTOR3|10=000|
8=FIX.4.4|9=58|35=0|34=28|49=EXECUTOR3|52=20131011-01:42:05.525|56=BVMF2|10=002|
8=FIX.4.4|9=90|35=A|34=1|49=EXECUTOR3|52=20131017-03:17:07.061|56=BVMF2|95=6|96=PMANQE|98=0|108=30|141=Y|10=116|
8=FIX.4.4|9=75|35=A|34=1|49=BVMF2|52=20131017-03:17:07.264|56=EXECUTOR3|98=0|108=30|141=Y|10=043|
8=FIX.4.4|9=90|35=A|34=1|49=EXECUTOR3|52=20131017-03:42:22.393|56=BVMF2|95=6|96=PMANQE|98=0|108=30|141=Y|10=119|
8=FIX.4.4|9=75|35=A|34=1|49=BVMF2|52=20131017-03:42:22.599|56=EXECUTOR3|98=0|108=30|141=Y|10=049|
8=FIX.4.4|9=57|35=0|34=2|49=EXECUTOR3|52=20131017-03:42:53.380|56=BVMF2|10=211|
8=FIX.4.4|9=57|35=0|34=2|49=BVMF2|52=20131017-03:42:53.440|56=EXECUTOR3|10=208|
8=FIX.4.4|9=57|35=0|34=3|49=EXECUTOR3|52=20131017-03:43:23.380|56=BVMF2|10=210|
8=FIX.4.4|9=57|35=0|34=3|49=BVMF2|52=20131017-03:43:23.478|56=EXECUTOR3|10=218|
8=FIX.4.4|9=57|35=0|34=4|49=EXECUTOR3|52=20131017-03:43:53.380|56=BVMF2|10=214|
8=FIX.4.4|9=57|35=0|34=4|49=BVMF2|52=20131017-03:43:53.478|56=EXECUTOR3|10=222|
8=FIX.4.4|9=57|35=0|34=5|49=EXECUTOR3|52=20131017-03:44:23.380|56=BVMF2|10=213|
8=FIX.4.4|9=57|35=0|34=5|49=BVMF2|52=20131017-03:44:23.478|56=EXECUTOR3|10=221|
8=FIX.4.4|9=57|35=0|34=6|49=EXECUTOR3|52=20131017-03:44:54.380|56=BVMF2|10=218|
8=FIX.4.4|9=57|35=0|34=6|49=BVMF2|52=20131017-03:44:54.382|56=EXECUTOR3|10=220|
8=FIX.4.4|9=57|35=0|34=7|49=EXECUTOR3|52=20131017-03:45:24.380|56=BVMF2|10=217|
8=FIX.4.4|9=57|35=0|34=7|49=BVMF2|52=20131017-03:45:24.383|56=EXECUTOR3|10=220|
8=FIX.4.4|9=57|35=0|34=8|49=EXECUTOR3|52=20131017-03:45:54.380|56=BVMF2|10=221|
8=FIX.4.4|9=57|35=0|34=8|49=BVMF2|52=20131017-03:45:54.383|56=EXECUTOR3|10=224|
8=FIX.4.4|9=57|35=0|34=9|49=EXECUTOR3|52=20131017-03:46:24.380|56=BVMF2|10=220|
8=FIX.4.4|9=57|35=0|34=9|49=BVMF2|52=20131017-03:46:24.383|56=EXECUTOR3|10=223|
8=FIX.4.4|9=58|35=0|34=10|49=EXECUTOR3|52=20131017-03:46:54.380|56=BVMF2|10=008|
8=FIX.4.4|9=58|35=0|34=10|49=BVMF2|52=20131017-03:46:54.383|56=EXECUTOR3|10=011|
8=FIX.4.4|9=58|35=0|34=11|49=EXECUTOR3|52=20131017-03:47:24.380|56=BVMF2|10=007|
8=FIX.4.4|9=58|35=0|34=11|49=BVMF2|52=20131017-03:47:24.476|56=EXECUTOR3|10=013|
8=FIX.4.4|9=58|35=0|34=12|49=EXECUTOR3|52=20131017-03:47:54.380|56=BVMF2|10=011|
8=FIX.4.4|9=58|35=0|34=12|49=BVMF2|52=20131017-03:47:55.478|56=EXECUTOR3|10=020|
8=FIX.4.4|9=58|35=0|34=13|49=EXECUTOR3|52=20131017-03:48:24.380|56=BVMF2|10=010|
8=FIX.4.4|9=58|35=0|34=13|49=BVMF2|52=20131017-03:48:26.476|56=EXECUTOR3|10=018|
8=FIX.4.4|9=58|35=0|34=14|49=EXECUTOR3|52=20131017-03:48:54.380|56=BVMF2|10=014|
8=FIX.4.4|9=58|35=0|34=14|49=BVMF2|52=20131017-03:48:56.476|56=EXECUTOR3|10=022|
8=FIX.4.4|9=58|35=0|34=15|49=EXECUTOR3|52=20131017-03:49:24.380|56=BVMF2|10=013|
8=FIX.4.4|9=58|35=0|34=15|49=BVMF2|52=20131017-03:49:27.476|56=EXECUTOR3|10=022|
8=FIX.4.4|9=58|35=0|34=16|49=EXECUTOR3|52=20131017-03:49:54.381|56=BVMF2|10=018|
8=FIX.4.4|9=58|35=0|34=16|49=BVMF2|52=20131017-03:49:57.476|56=EXECUTOR3|10=026|
8=FIX.4.4|9=58|35=0|34=17|49=EXECUTOR3|52=20131017-03:50:25.380|56=BVMF2|10=008|
8=FIX.4.4|9=58|35=0|34=17|49=BVMF2|52=20131017-03:50:27.476|56=EXECUTOR3|10=016|
8=FIX.4.4|9=58|35=0|34=18|49=EXECUTOR3|52=20131017-03:50:55.380|56=BVMF2|10=012|
8=FIX.4.4|9=58|35=0|34=18|49=BVMF2|52=20131017-03:50:58.476|56=EXECUTOR3|10=021|
8=FIX.4.4|9=58|35=0|34=19|49=EXECUTOR3|52=20131017-03:51:25.380|56=BVMF2|10=011|
8=FIX.4.4|9=58|35=0|34=19|49=BVMF2|52=20131017-03:51:28.476|56=EXECUTOR3|10=020|
8=FIX.4.4|9=58|35=0|34=20|49=EXECUTOR3|52=20131017-03:51:55.380|56=BVMF2|10=006|
8=FIX.4.4|9=58|35=0|34=20|49=BVMF2|52=20131017-03:51:58.476|56=EXECUTOR3|10=015|
8=FIX.4.4|9=58|35=0|34=21|49=EXECUTOR3|52=20131017-03:52:26.380|56=BVMF2|10=006|
8=FIX.4.4|9=58|35=0|34=21|49=BVMF2|52=20131017-03:52:28.476|56=EXECUTOR3|10=014|
8=FIX.4.4|9=58|35=0|34=22|49=EXECUTOR3|52=20131017-03:52:56.380|56=BVMF2|10=010|
8=FIX.4.4|9=58|35=0|34=22|49=BVMF2|52=20131017-03:52:59.476|56=EXECUTOR3|10=019|
8=FIX.4.4|9=58|35=0|34=23|49=EXECUTOR3|52=20131017-03:53:26.380|56=BVMF2|10=009|
8=FIX.4.4|9=58|35=0|34=23|49=BVMF2|52=20131017-03:53:30.476|56=EXECUTOR3|10=010|
8=FIX.4.4|9=58|35=0|34=24|49=EXECUTOR3|52=20131017-03:53:57.380|56=BVMF2|10=014|
8=FIX.4.4|9=58|35=0|34=24|49=BVMF2|52=20131017-03:54:00.476|56=EXECUTOR3|10=009|
8=FIX.4.4|9=90|35=A|34=1|49=EXECUTOR3|52=20131017-21:47:44.435|56=BVMF2|95=6|96=PMANQE|98=0|108=30|141=Y|10=125|
8=FIX.4.4|9=75|35=A|34=1|49=BVMF2|52=20131017-21:47:44.537|56=EXECUTOR3|98=0|108=30|141=Y|10=050|
8=FIX.4.4|9=57|35=0|34=2|49=BVMF2|52=20131017-21:48:15.030|56=EXECUTOR3|10=207|
8=FIX.4.4|9=57|35=0|34=2|49=EXECUTOR3|52=20131017-21:48:15.033|56=BVMF2|10=210|
8=FIX.4.4|9=57|35=0|34=3|49=EXECUTOR3|52=20131017-21:48:45.415|56=BVMF2|10=218|
8=FIX.4.4|9=57|35=0|34=3|49=BVMF2|52=20131017-21:48:45.417|56=EXECUTOR3|10=220|
8=FIX.4.4|9=57|35=0|34=4|49=EXECUTOR3|52=20131017-21:49:15.415|56=BVMF2|10=217|
8=FIX.4.4|9=57|35=0|34=4|49=BVMF2|52=20131017-21:49:15.417|56=EXECUTOR3|10=219|
8=FIX.4.4|9=57|35=0|34=5|49=BVMF2|52=20131017-21:49:46.025|56=EXECUTOR3|10=219|
8=FIX.4.4|9=57|35=0|34=5|49=EXECUTOR3|52=20131017-21:49:46.027|56=BVMF2|10=221|
8=FIX.4.4|9=57|35=0|34=6|49=BVMF2|52=20131017-21:50:16.025|56=EXECUTOR3|10=209|
8=FIX.4.4|9=57|35=0|34=6|49=EXECUTOR3|52=20131017-21:50:16.027|56=BVMF2|10=211|
8=FIX.4.4|9=57|35=0|34=7|49=EXECUTOR3|52=20131017-21:50:46.414|56=BVMF2|10=215|
8=FIX.4.4|9=57|35=0|34=7|49=BVMF2|52=20131017-21:50:46.416|56=EXECUTOR3|10=217|
8=FIX.4.4|9=57|35=0|34=8|49=EXECUTOR3|52=20131017-21:51:16.415|56=BVMF2|10=215|
8=FIX.4.4|9=57|35=0|34=8|49=BVMF2|52=20131017-21:51:16.416|56=EXECUTOR3|10=216|
8=FIX.4.4|9=90|35=A|34=1|49=EXECUTOR3|52=20131017-21:52:05.612|56=BVMF2|95=6|96=PMANQE|98=0|108=30|141=Y|10=115|
8=FIX.4.4|9=75|35=A|34=1|49=BVMF2|52=20131017-21:52:05.652|56=EXECUTOR3|98=0|108=30|141=Y|10=041|
8=FIX.4.4|9=57|35=0|34=2|49=BVMF2|52=20131017-21:52:35.810|56=EXECUTOR3|10=210|
8=FIX.4.4|9=57|35=0|34=2|49=EXECUTOR3|52=20131017-21:52:35.815|56=BVMF2|10=215|
8=FIX.4.4|9=57|35=0|34=3|49=EXECUTOR3|52=20131017-21:53:06.592|56=BVMF2|10=217|
8=FIX.4.4|9=57|35=0|34=3|49=BVMF2|52=20131017-21:53:06.594|56=EXECUTOR3|10=219|
8=FIX.4.4|9=90|35=A|34=1|49=EXECUTOR3|52=20131017-21:54:29.914|56=BVMF2|95=6|96=PMANQE|98=0|108=30|141=Y|10=128|
8=FIX.4.4|9=75|35=A|34=1|49=BVMF2|52=20131017-21:54:29.972|56=EXECUTOR3|98=0|108=30|141=Y|10=054|
8=FIX.4.4|9=57|35=0|34=2|49=BVMF2|52=20131017-21:55:00.031|56=EXECUTOR3|10=200|
8=FIX.4.4|9=57|35=0|34=2|49=EXECUTOR3|52=20131017-21:55:00.035|56=BVMF2|10=204|
8=FIX.4.4|9=57|35=0|34=3|49=EXECUTOR3|52=20131017-21:55:30.895|56=BVMF2|10=222|
8=FIX.4.4|9=57|35=0|34=3|49=BVMF2|52=20131017-21:55:30.899|56=EXECUTOR3|10=226|
8=FIX.4.4|9=57|35=0|34=4|49=BVMF2|52=20131017-21:56:01.023|56=EXECUTOR3|10=205|
8=FIX.4.4|9=57|35=0|34=4|49=EXECUTOR3|52=20131017-21:56:01.024|56=BVMF2|10=206|
8=FIX.4.4|9=57|35=0|34=5|49=BVMF2|52=20131017-21:56:31.024|56=EXECUTOR3|10=210|
8=FIX.4.4|9=57|35=0|34=5|49=EXECUTOR3|52=20131017-21:56:31.026|56=BVMF2|10=212|
8=FIX.4.4|9=90|35=A|34=1|49=EXECUTOR3|52=20131017-21:58:10.829|56=BVMF2|95=6|96=PMANQE|98=0|108=30|141=Y|10=127|
8=FIX.4.4|9=75|35=A|34=1|49=BVMF2|52=20131017-21:58:10.873|56=EXECUTOR3|98=0|108=30|141=Y|10=048|
8=FIX.4.4|9=57|35=0|34=2|49=BVMF2|52=20131017-21:58:41.698|56=EXECUTOR3|10=227|
8=FIX.4.4|9=57|35=0|34=2|49=EXECUTOR3|52=20131017-21:58:41.701|56=BVMF2|10=212|
8=FIX.4.4|9=57|35=0|34=3|49=EXECUTOR3|52=20131017-21:59:11.809|56=BVMF2|10=220|
8=FIX.4.4|9=57|35=0|34=3|49=BVMF2|52=20131017-21:59:11.812|56=EXECUTOR3|10=214|
8=FIX.4.4|9=57|35=0|34=4|49=EXECUTOR3|52=20131017-21:59:41.810|56=BVMF2|10=216|
8=FIX.4.4|9=57|35=0|34=4|49=BVMF2|52=20131017-21:59:41.812|56=EXECUTOR3|10=218|
8=FIX.4.4|9=57|35=0|34=5|49=BVMF2|52=20131017-22:00:12.695|56=EXECUTOR3|10=213|
8=FIX.4.4|9=57|35=0|34=5|49=EXECUTOR3|52=20131017-22:00:12.697|56=BVMF2|10=215|
8=FIX.4.4|9=57|35=0|34=6|49=EXECUTOR3|52=20131017-22:00:42.810|56=BVMF2|10=206|
8=FIX.4.4|9=57|35=0|34=6|49=BVMF2|52=20131017-22:00:42.813|56=EXECUTOR3|10=209|
8=FIX.4.4|9=57|35=0|34=7|49=EXECUTOR3|52=20131017-22:01:12.810|56=BVMF2|10=205|
8=FIX.4.4|9=57|35=0|34=7|49=BVMF2|52=20131017-22:01:13.692|56=EXECUTOR3|10=214|
8=FIX.4.4|9=90|35=A|34=1|49=EXECUTOR3|52=20131017-22:02:30.576|56=BVMF2|95=6|96=PMANQE|98=0|108=30|141=Y|10=118|
8=FIX.4.4|9=75|35=A|34=1|49=BVMF2|52=20131017-22:02:30.645|56=EXECUTOR3|98=0|108=30|141=Y|10=037|
8=FIX.4.4|9=57|35=0|34=2|49=BVMF2|52=20131017-22:03:01.365|56=EXECUTOR3|10=205|
8=FIX.4.4|9=57|35=0|34=2|49=EXECUTOR3|52=20131017-22:03:01.370|56=BVMF2|10=201|
8=FIX.4.4|9=57|35=0|34=3|49=EXECUTOR3|52=20131017-22:03:31.556|56=BVMF2|10=211|
8=FIX.4.4|9=57|35=0|34=3|49=BVMF2|52=20131017-22:03:31.558|56=EXECUTOR3|10=213|
8=FIX.4.4|9=57|35=0|34=4|49=EXECUTOR3|52=20131017-22:04:01.556|56=BVMF2|10=210|
8=FIX.4.4|9=57|35=0|34=4|49=BVMF2|52=20131017-22:04:01.558|56=EXECUTOR3|10=212|
8=FIX.4.4|9=57|35=0|34=5|49=BVMF2|52=20131017-22:04:32.363|56=EXECUTOR3|10=211|
8=FIX.4.4|9=57|35=0|34=5|49=EXECUTOR3|52=20131017-22:04:32.365|56=BVMF2|10=213|
8=FIX.4.4|9=90|35=A|34=1|49=EXECUTOR3|52=20131017-22:05:11.617|56=BVMF2|95=6|96=PMANQE|98=0|108=30|141=Y|10=116|
8=FIX.4.4|9=75|35=A|34=1|49=BVMF2|52=20131017-22:05:11.658|56=EXECUTOR3|98=0|108=30|141=Y|10=043|
8=FIX.4.4|9=57|35=0|34=2|49=BVMF2|52=20131017-22:05:42.290|56=EXECUTOR3|10=209|
8=FIX.4.4|9=57|35=0|34=2|49=EXECUTOR3|52=20131017-22:05:42.293|56=BVMF2|10=212|
8=FIX.4.4|9=57|35=0|34=3|49=EXECUTOR3|52=20131017-22:06:12.597|56=BVMF2|10=218|
8=FIX.4.4|9=57|35=0|34=3|49=BVMF2|52=20131017-22:06:12.600|56=EXECUTOR3|10=203|
8=FIX.4.4|9=57|35=0|34=4|49=EXECUTOR3|52=20131017-22:06:42.598|56=BVMF2|10=223|
8=FIX.4.4|9=57|35=0|34=4|49=BVMF2|52=20131017-22:06:42.600|56=EXECUTOR3|10=207|
8=FIX.4.4|9=57|35=0|34=5|49=BVMF2|52=20131017-22:07:13.287|56=EXECUTOR3|10=218|
8=FIX.4.4|9=57|35=0|34=5|49=EXECUTOR3|52=20131017-22:07:13.289|56=BVMF2|10=220|
8=FIX.4.4|9=57|35=0|34=6|49=EXECUTOR3|52=20131017-22:07:43.598|56=BVMF2|10=227|
8=FIX.4.4|9=57|35=0|34=6|49=BVMF2|52=20131017-22:07:43.601|56=EXECUTOR3|10=212|
8=FIX.4.4|9=57|35=0|34=7|49=BVMF2|52=20131017-22:08:14.287|56=EXECUTOR3|10=222|
8=FIX.4.4|9=57|35=0|34=7|49=EXECUTOR3|52=20131017-22:08:14.289|56=BVMF2|10=224|
8=FIX.4.4|9=57|35=0|34=8|49=BVMF2|52=20131017-22:08:44.288|56=EXECUTOR3|10=227|
8=FIX.4.4|9=57|35=0|34=8|49=EXECUTOR3|52=20131017-22:08:44.290|56=BVMF2|10=220|
8=FIX.4.4|9=57|35=0|34=9|49=BVMF2|52=20131017-22:09:14.288|56=EXECUTOR3|10=226|
8=FIX.4.4|9=57|35=0|34=9|49=EXECUTOR3|52=20131017-22:09:14.290|56=BVMF2|10=219|
8=FIX.4.4|9=58|35=0|34=10|49=EXECUTOR3|52=20131017-22:09:44.597|56=BVMF2|10=017|
8=FIX.4.4|9=58|35=0|34=10|49=BVMF2|52=20131017-22:09:44.599|56=EXECUTOR3|10=019|
8=FIX.4.4|9=58|35=0|34=11|49=EXECUTOR3|52=20131017-22:10:14.598|56=BVMF2|10=008|
8=FIX.4.4|9=58|35=0|34=11|49=BVMF2|52=20131017-22:10:14.601|56=EXECUTOR3|10=249|
8=FIX.4.4|9=58|35=0|34=12|49=EXECUTOR3|52=20131017-22:10:44.598|56=BVMF2|10=012|
8=FIX.4.4|9=58|35=0|34=12|49=BVMF2|52=20131017-22:10:45.288|56=EXECUTOR3|10=009|
8=FIX.4.4|9=58|35=0|34=13|49=BVMF2|52=20131017-22:11:15.288|56=EXECUTOR3|10=008|
8=FIX.4.4|9=58|35=0|34=13|49=EXECUTOR3|52=20131017-22:11:15.290|56=BVMF2|10=001|
8=FIX.4.4|9=58|35=0|34=14|49=EXECUTOR3|52=20131017-22:11:45.597|56=BVMF2|10=015|
8=FIX.4.4|9=58|35=0|34=14|49=BVMF2|52=20131017-22:11:45.600|56=EXECUTOR3|10=000|
8=FIX.4.4|9=58|35=0|34=15|49=EXECUTOR3|52=20131017-22:12:15.597|56=BVMF2|10=014|
8=FIX.4.4|9=58|35=0|34=15|49=BVMF2|52=20131017-22:12:16.286|56=EXECUTOR3|10=010|
8=FIX.4.4|9=58|35=0|34=16|49=EXECUTOR3|52=20131017-22:12:45.598|56=BVMF2|10=019|
8=FIX.4.4|9=58|35=0|34=16|49=BVMF2|52=20131017-22:12:46.286|56=EXECUTOR3|10=014|
8=FIX.4.4|9=58|35=0|34=17|49=BVMF2|52=20131017-22:13:16.287|56=EXECUTOR3|10=014|
8=FIX.4.4|9=58|35=0|34=17|49=EXECUTOR3|52=20131017-22:13:16.289|56=BVMF2|10=016|
8=FIX.4.4|9=90|35=A|34=1|49=EXECUTOR3|52=20131017-22:13:49.600|56=BVMF2|95=6|96=PMANQE|98=0|108=30|141=Y|10=118|
8=FIX.4.4|9=75|35=A|34=1|49=BVMF2|52=20131017-22:13:49.650|56=EXECUTOR3|98=0|108=30|141=Y|10=045|
8=FIX.4.4|9=90|35=A|34=1|49=EXECUTOR3|52=20131017-22:19:31.699|56=BVMF2|95=6|96=PMANQE|98=0|108=30|141=Y|10=133|
8=FIX.4.4|9=75|35=A|34=1|49=BVMF2|52=20131017-22:19:31.716|56=EXECUTOR3|98=0|108=30|141=Y|10=045|
8=FIX.4.4|9=57|35=0|34=2|49=BVMF2|52=20131017-22:20:02.357|56=EXECUTOR3|10=206|
8=FIX.4.4|9=57|35=0|34=2|49=EXECUTOR3|52=20131017-22:20:02.359|56=BVMF2|10=208|
8=FIX.4.4|9=57|35=0|34=3|49=EXECUTOR3|52=20131017-22:20:32.679|56=BVMF2|10=217|
8=FIX.4.4|9=57|35=0|34=3|49=BVMF2|52=20131017-22:20:32.704|56=EXECUTOR3|10=206|
8=FIX.4.4|9=57|35=0|34=4|49=EXECUTOR3|52=20131017-22:21:02.680|56=BVMF2|10=208|
8=FIX.4.4|9=57|35=0|34=4|49=BVMF2|52=20131017-22:21:03.355|56=EXECUTOR3|10=208|
8=FIX.4.4|9=57|35=0|34=5|49=EXECUTOR3|52=20131017-22:21:33.680|56=BVMF2|10=213|
8=FIX.4.4|9=57|35=0|34=5|49=BVMF2|52=20131017-22:21:33.683|56=EXECUTOR3|10=216|
8=FIX.4.4|9=57|35=0|34=6|49=EXECUTOR3|52=20131017-22:22:03.680|56=BVMF2|10=212|
8=FIX.4.4|9=57|35=0|34=6|49=BVMF2|52=20131017-22:22:04.354|56=EXECUTOR3|10=211|
8=FIX.4.4|9=90|35=A|34=1|49=EXECUTOR3|52=20131017-22:22:33.928|56=BVMF2|95=6|96=PMANQE|98=0|108=30|141=Y|10=124|
8=FIX.4.4|9=75|35=A|34=1|49=BVMF2|52=20131017-22:22:34.131|56=EXECUTOR3|98=0|108=30|141=Y|10=033|
8=FIX.4.4|9=57|35=0|34=2|49=BVMF2|52=20131017-22:23:04.441|56=EXECUTOR3|10=205|
8=FIX.4.4|9=57|35=0|34=2|49=EXECUTOR3|52=20131017-22:23:04.445|56=BVMF2|10=209|
8=FIX.4.4|9=57|35=0|34=3|49=EXECUTOR3|52=20131017-22:23:34.767|56=BVMF2|10=220|
8=FIX.4.4|9=57|35=0|34=3|49=BVMF2|52=20131017-22:23:34.770|56=EXECUTOR3|10=214|
8=FIX.4.4|9=57|35=0|34=4|49=EXECUTOR3|52=20131017-22:24:04.768|56=BVMF2|10=220|
8=FIX.4.4|9=57|35=0|34=4|49=BVMF2|52=20131017-22:24:04.818|56=EXECUTOR3|10=216|
8=FIX.4.4|9=57|35=0|34=5|49=EXECUTOR3|52=20131017-22:24:34.768|56=BVMF2|10=224|
8=FIX.4.4|9=57|35=0|34=5|49=BVMF2|52=20131017-22:24:35.442|56=EXECUTOR3|10=214|
8=FIX.4.4|9=57|35=0|34=6|49=EXECUTOR3|52=20131017-22:25:05.768|56=BVMF2|10=224|
8=FIX.4.4|9=57|35=0|34=6|49=BVMF2|52=20131017-22:25:05.770|56=EXECUTOR3|10=217|
8=FIX.4.4|9=57|35=0|34=7|49=EXECUTOR3|52=20131017-22:25:35.768|56=BVMF2|10=228|
8=FIX.4.4|9=57|35=0|34=7|49=BVMF2|52=20131017-22:25:35.770|56=EXECUTOR3|10=221|
8=FIX.4.4|9=57|35=0|34=8|49=EXECUTOR3|52=20131017-22:26:05.768|56=BVMF2|10=227|
8=FIX.4.4|9=57|35=0|34=8|49=BVMF2|52=20131017-22:26:05.770|56=EXECUTOR3|10=220|
8=FIX.4.4|9=57|35=0|34=9|49=EXECUTOR3|52=20131017-22:26:35.768|56=BVMF2|10=231|
8=FIX.4.4|9=57|35=0|34=9|49=BVMF2|52=20131017-22:26:35.770|56=EXECUTOR3|10=224|
8=FIX.4.4|9=58|35=0|34=10|49=BVMF2|52=20131017-22:27:06.437|56=EXECUTOR3|10=008|
8=FIX.4.4|9=58|35=0|34=10|49=EXECUTOR3|52=20131017-22:27:06.439|56=BVMF2|10=010|
8=FIX.4.4|9=58|35=0|34=11|49=BVMF2|52=20131017-22:27:36.438|56=EXECUTOR3|10=013|
8=FIX.4.4|9=58|35=0|34=11|49=EXECUTOR3|52=20131017-22:27:36.440|56=BVMF2|10=006|
8=FIX.4.4|9=58|35=0|34=12|49=BVMF2|52=20131017-22:28:06.438|56=EXECUTOR3|10=012|
8=FIX.4.4|9=58|35=0|34=12|49=EXECUTOR3|52=20131017-22:28:06.767|56=BVMF2|10=017|
8=FIX.4.4|9=58|35=0|34=13|49=BVMF2|52=20131017-22:28:36.438|56=EXECUTOR3|10=016|
8=FIX.4.4|9=58|35=0|34=13|49=EXECUTOR3|52=20131017-22:28:36.767|56=BVMF2|10=021|
8=FIX.4.4|9=58|35=0|34=14|49=BVMF2|52=20131017-22:29:06.438|56=EXECUTOR3|10=015|
8=FIX.4.4|9=58|35=0|34=14|49=EXECUTOR3|52=20131017-22:29:06.768|56=BVMF2|10=021|
8=FIX.4.4|9=58|35=0|34=15|49=BVMF2|52=20131017-22:29:36.438|56=EXECUTOR3|10=019|
8=FIX.4.4|9=58|35=0|34=15|49=EXECUTOR3|52=20131017-22:29:37.768|56=BVMF2|10=026|
8=FIX.4.4|9=58|35=0|34=16|49=BVMF2|52=20131017-22:30:06.438|56=EXECUTOR3|10=009|
8=FIX.4.4|9=58|35=0|34=16|49=EXECUTOR3|52=20131017-22:30:08.768|56=BVMF2|10=017|
8=FIX.4.4|9=58|35=0|34=17|49=BVMF2|52=20131017-22:30:37.438|56=EXECUTOR3|10=014|
8=FIX.4.4|9=58|35=0|34=17|49=EXECUTOR3|52=20131017-22:30:39.767|56=BVMF2|10=021|
8=FIX.4.4|9=58|35=0|34=18|49=BVMF2|52=20131017-22:31:08.438|56=EXECUTOR3|10=014|
8=FIX.4.4|9=58|35=0|34=18|49=EXECUTOR3|52=20131017-22:31:09.768|56=BVMF2|10=021|
8=FIX.4.4|9=58|35=0|34=19|49=BVMF2|52=20131017-22:31:39.438|56=EXECUTOR3|10=019|
8=FIX.4.4|9=58|35=0|34=19|49=EXECUTOR3|52=20131017-22:31:39.768|56=BVMF2|10=025|
8=FIX.4.4|9=58|35=0|34=20|49=BVMF2|52=20131017-22:32:10.446|56=EXECUTOR3|10=000|
8=FIX.4.4|9=58|35=0|34=20|49=EXECUTOR3|52=20131017-22:32:10.456|56=BVMF2|10=001|
8=FIX.4.4|9=58|35=0|34=21|49=EXECUTOR3|52=20131017-22:32:40.767|56=BVMF2|10=010|
8=FIX.4.4|9=58|35=0|34=21|49=BVMF2|52=20131017-22:32:40.768|56=EXECUTOR3|10=011|
8=FIX.4.4|9=58|35=0|34=22|49=EXECUTOR3|52=20131017-22:33:10.768|56=BVMF2|10=010|
8=FIX.4.4|9=58|35=0|34=22|49=BVMF2|52=20131017-22:33:10.769|56=EXECUTOR3|10=011|
8=FIX.4.4|9=58|35=0|34=23|49=EXECUTOR3|52=20131017-22:33:40.768|56=BVMF2|10=014|
8=FIX.4.4|9=58|35=0|34=23|49=BVMF2|52=20131017-22:33:40.769|56=EXECUTOR3|10=015|
8=FIX.4.4|9=58|35=0|34=24|49=EXECUTOR3|52=20131017-22:34:10.768|56=BVMF2|10=013|
8=FIX.4.4|9=58|35=0|34=24|49=BVMF2|52=20131017-22:34:10.770|56=EXECUTOR3|10=006|
8=FIX.4.4|9=58|35=0|34=25|49=BVMF2|52=20131017-22:34:41.438|56=EXECUTOR3|10=012|
8=FIX.4.4|9=58|35=0|34=25|49=EXECUTOR3|52=20131017-22:34:41.440|56=BVMF2|10=005|
8=FIX.4.4|9=58|35=0|34=26|49=BVMF2|52=20131017-22:35:11.443|56=EXECUTOR3|10=007|
8=FIX.4.4|9=58|35=0|34=26|49=EXECUTOR3|52=20131017-22:35:11.444|56=BVMF2|10=008|
8=FIX.4.4|9=58|35=0|34=27|49=EXECUTOR3|52=20131017-22:35:41.768|56=BVMF2|10=021|
8=FIX.4.4|9=58|35=0|34=27|49=BVMF2|52=20131017-22:35:41.769|56=EXECUTOR3|10=022|
8=FIX.4.4|9=58|35=0|34=28|49=EXECUTOR3|52=20131017-22:36:11.768|56=BVMF2|10=020|
8=FIX.4.4|9=58|35=0|34=28|49=BVMF2|52=20131017-22:36:11.769|56=EXECUTOR3|10=021|
8=FIX.4.4|9=58|35=0|34=29|49=EXECUTOR3|52=20131017-22:36:41.768|56=BVMF2|10=024|
8=FIX.4.4|9=58|35=0|34=29|49=BVMF2|52=20131017-22:36:41.769|56=EXECUTOR3|10=025|
8=FIX.4.4|9=58|35=0|34=30|49=EXECUTOR3|52=20131017-22:37:11.768|56=BVMF2|10=014|
8=FIX.4.4|9=58|35=0|34=30|49=BVMF2|52=20131017-22:37:11.769|56=EXECUTOR3|10=015|
8=FIX.4.4|9=58|35=0|34=31|49=BVMF2|52=20131017-22:37:42.437|56=EXECUTOR3|10=012|
8=FIX.4.4|9=58|35=0|34=31|49=EXECUTOR3|52=20131017-22:37:42.443|56=BVMF2|10=009|
8=FIX.4.4|9=58|35=0|34=32|49=BVMF2|52=20131017-22:38:12.437|56=EXECUTOR3|10=011|
8=FIX.4.4|9=58|35=0|34=32|49=EXECUTOR3|52=20131017-22:38:12.627|56=BVMF2|10=012|
8=FIX.4.4|9=58|35=0|34=33|49=BVMF2|52=20131017-22:38:42.438|56=EXECUTOR3|10=016|
8=FIX.4.4|9=58|35=0|34=33|49=EXECUTOR3|52=20131017-22:38:42.767|56=BVMF2|10=021|
8=FIX.4.4|9=58|35=0|34=34|49=BVMF2|52=20131017-22:39:12.438|56=EXECUTOR3|10=015|
8=FIX.4.4|9=58|35=0|34=34|49=EXECUTOR3|52=20131017-22:39:12.767|56=BVMF2|10=020|
8=FIX.4.4|9=58|35=0|34=35|49=EXECUTOR3|52=20131017-22:39:42.768|56=BVMF2|10=025|
8=FIX.4.4|9=58|35=0|34=35|49=BVMF2|52=20131017-22:39:42.885|56=EXECUTOR3|10=025|
8=FIX.4.4|9=58|35=0|34=36|49=BVMF2|52=20131017-22:40:13.438|56=EXECUTOR3|10=010|
8=FIX.4.4|9=58|35=0|34=36|49=EXECUTOR3|52=20131017-22:40:13.439|56=BVMF2|10=011|
8=FIX.4.4|9=58|35=0|34=37|49=BVMF2|52=20131017-22:40:43.438|56=EXECUTOR3|10=014|
8=FIX.4.4|9=58|35=0|34=37|49=EXECUTOR3|52=20131017-22:40:43.439|56=BVMF2|10=015|
8=FIX.4.4|9=58|35=0|34=38|49=BVMF2|52=20131017-22:41:13.438|56=EXECUTOR3|10=013|
8=FIX.4.4|9=58|35=0|34=38|49=EXECUTOR3|52=20131017-22:41:13.439|56=BVMF2|10=014|
8=FIX.4.4|9=58|35=0|34=39|49=BVMF2|52=20131017-22:41:43.438|56=EXECUTOR3|10=017|
8=FIX.4.4|9=58|35=0|34=39|49=EXECUTOR3|52=20131017-22:41:43.490|56=BVMF2|10=015|
8=FIX.4.4|9=58|35=0|34=40|49=BVMF2|52=20131017-22:42:13.438|56=EXECUTOR3|10=007|
8=FIX.4.4|9=58|35=0|34=40|49=EXECUTOR3|52=20131017-22:42:13.768|56=BVMF2|10=013|
8=FIX.4.4|9=58|35=0|34=41|49=BVMF2|52=20131017-22:42:44.437|56=EXECUTOR3|10=011|
8=FIX.4.4|9=58|35=0|34=41|49=EXECUTOR3|52=20131017-22:42:44.439|56=BVMF2|10=013|
8=FIX.4.4|9=58|35=0|34=42|49=BVMF2|52=20131017-22:43:14.437|56=EXECUTOR3|10=010|
8=FIX.4.4|9=58|35=0|34=42|49=EXECUTOR3|52=20131017-22:43:14.768|56=BVMF2|10=017|
8=FIX.4.4|9=58|35=0|34=43|49=BVMF2|52=20131017-22:43:44.438|56=EXECUTOR3|10=015|
8=FIX.4.4|9=58|35=0|34=43|49=EXECUTOR3|52=20131017-22:43:44.768|56=BVMF2|10=021|
8=FIX.4.4|9=58|35=0|34=44|49=BVMF2|52=20131017-22:44:14.438|56=EXECUTOR3|10=014|
8=FIX.4.4|9=58|35=0|34=44|49=EXECUTOR3|52=20131017-22:44:15.767|56=BVMF2|10=020|
8=FIX.4.4|9=58|35=0|34=45|49=BVMF2|52=20131017-22:44:45.438|56=EXECUTOR3|10=019|
8=FIX.4.4|9=58|35=0|34=45|49=EXECUTOR3|52=20131017-22:44:45.767|56=BVMF2|10=024|
8=FIX.4.4|9=58|35=0|34=46|49=BVMF2|52=20131017-22:45:15.438|56=EXECUTOR3|10=018|
8=FIX.4.4|9=58|35=0|34=46|49=EXECUTOR3|52=20131017-22:45:15.768|56=BVMF2|10=024|
8=FIX.4.4|9=58|35=0|34=47|49=BVMF2|52=20131017-22:45:45.438|56=EXECUTOR3|10=022|
8=FIX.4.4|9=58|35=0|34=47|49=EXECUTOR3|52=20131017-22:45:45.768|56=BVMF2|10=028|
8=FIX.4.4|9=58|35=0|34=48|49=BVMF2|52=20131017-22:46:15.438|56=EXECUTOR3|10=021|
8=FIX.4.4|9=58|35=0|34=48|49=EXECUTOR3|52=20131017-22:46:15.768|56=BVMF2|10=027|
8=FIX.4.4|9=58|35=0|34=49|49=BVMF2|52=20131017-22:46:45.438|56=EXECUTOR3|10=025|
8=FIX.4.4|9=58|35=0|34=49|49=EXECUTOR3|52=20131017-22:46:45.768|56=BVMF2|10=031|
8=FIX.4.4|9=58|35=0|34=50|49=BVMF2|52=20131017-22:47:15.438|56=EXECUTOR3|10=015|
8=FIX.4.4|9=58|35=0|34=50|49=EXECUTOR3|52=20131017-22:47:15.768|56=BVMF2|10=021|
8=FIX.4.4|9=58|35=0|34=51|49=EXECUTOR3|52=20131017-22:47:45.768|56=BVMF2|10=025|
8=FIX.4.4|9=58|35=0|34=51|49=BVMF2|52=20131017-22:47:45.770|56=EXECUTOR3|10=018|
8=FIX.4.4|9=58|35=0|34=52|49=BVMF2|52=20131017-22:48:16.437|56=EXECUTOR3|10=018|
8=FIX.4.4|9=58|35=0|34=52|49=EXECUTOR3|52=20131017-22:48:16.439|56=BVMF2|10=020|
8=FIX.4.4|9=58|35=0|34=53|49=BVMF2|52=20131017-22:48:46.437|56=EXECUTOR3|10=022|
8=FIX.4.4|9=58|35=0|34=53|49=EXECUTOR3|52=20131017-22:48:46.439|56=BVMF2|10=024|
8=FIX.4.4|9=58|35=0|34=54|49=BVMF2|52=20131017-22:49:16.438|56=EXECUTOR3|10=022|
8=FIX.4.4|9=58|35=0|34=54|49=EXECUTOR3|52=20131017-22:49:16.440|56=BVMF2|10=015|
8=FIX.4.4|9=58|35=0|34=55|49=BVMF2|52=20131017-22:49:46.438|56=EXECUTOR3|10=026|
8=FIX.4.4|9=58|35=0|34=55|49=EXECUTOR3|52=20131017-22:49:46.768|56=BVMF2|10=032|
8=FIX.4.4|9=58|35=0|34=56|49=BVMF2|52=20131017-22:50:16.438|56=EXECUTOR3|10=016|
8=FIX.4.4|9=58|35=0|34=56|49=EXECUTOR3|52=20131017-22:50:17.768|56=BVMF2|10=023|
8=FIX.4.4|9=58|35=0|34=57|49=BVMF2|52=20131017-22:50:47.437|56=EXECUTOR3|10=020|
8=FIX.4.4|9=58|35=0|34=57|49=EXECUTOR3|52=20131017-22:50:47.768|56=BVMF2|10=027|
8=FIX.4.4|9=58|35=0|34=58|49=BVMF2|52=20131017-22:51:17.438|56=EXECUTOR3|10=020|
8=FIX.4.4|9=58|35=0|34=58|49=EXECUTOR3|52=20131017-22:51:17.768|56=BVMF2|10=026|
8=FIX.4.4|9=58|35=0|34=59|49=BVMF2|52=20131017-22:51:47.438|56=EXECUTOR3|10=024|
8=FIX.4.4|9=58|35=0|34=59|49=EXECUTOR3|52=20131017-22:51:48.768|56=BVMF2|10=031|
8=FIX.4.4|9=58|35=0|34=60|49=BVMF2|52=20131017-22:52:17.438|56=EXECUTOR3|10=014|
8=FIX.4.4|9=58|35=0|34=60|49=EXECUTOR3|52=20131017-22:52:19.768|56=BVMF2|10=022|
8=FIX.4.4|9=58|35=0|34=61|49=BVMF2|52=20131017-22:52:47.438|56=EXECUTOR3|10=018|
8=FIX.4.4|9=58|35=0|34=61|49=EXECUTOR3|52=20131017-22:52:50.767|56=BVMF2|10=017|
8=FIX.4.4|9=58|35=0|34=62|49=BVMF2|52=20131017-22:53:18.437|56=EXECUTOR3|10=017|
8=FIX.4.4|9=58|35=0|34=62|49=EXECUTOR3|52=20131017-22:53:20.767|56=BVMF2|10=016|
8=FIX.4.4|9=58|35=0|34=63|49=BVMF2|52=20131017-22:53:48.437|56=EXECUTOR3|10=021|
8=FIX.4.4|9=58|35=0|34=63|49=EXECUTOR3|52=20131017-22:53:50.768|56=BVMF2|10=021|
8=FIX.4.4|9=58|35=0|34=64|49=BVMF2|52=20131017-22:54:18.438|56=EXECUTOR3|10=021|
8=FIX.4.4|9=58|35=0|34=64|49=EXECUTOR3|52=20131017-22:54:20.768|56=BVMF2|10=020|
8=FIX.4.4|9=58|35=0|34=65|49=BVMF2|52=20131017-22:54:48.438|56=EXECUTOR3|10=025|
8=FIX.4.4|9=58|35=0|34=65|49=EXECUTOR3|52=20131017-22:54:50.768|56=BVMF2|10=024|
8=FIX.4.4|9=58|35=0|34=66|49=BVMF2|52=20131017-22:55:18.438|56=EXECUTOR3|10=024|
8=FIX.4.4|9=58|35=0|34=66|49=EXECUTOR3|52=20131017-22:55:21.768|56=BVMF2|10=024|
8=FIX.4.4|9=58|35=0|34=67|49=BVMF2|52=20131017-22:55:48.438|56=EXECUTOR3|10=028|
8=FIX.4.4|9=58|35=0|34=67|49=EXECUTOR3|52=20131017-22:55:52.767|56=BVMF2|10=028|
8=FIX.4.4|9=58|35=0|34=68|49=BVMF2|52=20131017-22:56:19.438|56=EXECUTOR3|10=028|
8=FIX.4.4|9=58|35=0|34=68|49=EXECUTOR3|52=20131017-22:56:22.767|56=BVMF2|10=027|
8=FIX.4.4|9=58|35=0|34=69|49=BVMF2|52=20131017-22:56:49.438|56=EXECUTOR3|10=032|
8=FIX.4.4|9=58|35=0|34=69|49=EXECUTOR3|52=20131017-22:56:52.767|56=BVMF2|10=031|
8=FIX.4.4|9=58|35=0|34=70|49=BVMF2|52=20131017-22:57:19.441|56=EXECUTOR3|10=016|
8=FIX.4.4|9=58|35=0|34=70|49=EXECUTOR3|52=20131017-22:57:22.767|56=BVMF2|10=021|
8=FIX.4.4|9=58|35=0|34=71|49=BVMF2|52=20131017-22:57:50.438|56=EXECUTOR3|10=018|
8=FIX.4.4|9=58|35=0|34=71|49=EXECUTOR3|52=20131017-22:57:52.768|56=BVMF2|10=026|
8=FIX.4.4|9=58|35=0|34=72|49=BVMF2|52=20131017-22:58:20.438|56=EXECUTOR3|10=017|
8=FIX.4.4|9=58|35=0|34=72|49=EXECUTOR3|52=20131017-22:58:22.768|56=BVMF2|10=025|
8=FIX.4.4|9=58|35=0|34=73|49=BVMF2|52=20131017-22:58:50.438|56=EXECUTOR3|10=021|
8=FIX.4.4|9=58|35=0|34=73|49=EXECUTOR3|52=20131017-22:58:52.768|56=BVMF2|10=029|
8=FIX.4.4|9=58|35=0|34=74|49=BVMF2|52=20131017-22:59:20.438|56=EXECUTOR3|10=020|
8=FIX.4.4|9=58|35=0|34=74|49=EXECUTOR3|52=20131017-22:59:23.767|56=BVMF2|10=028|
8=FIX.4.4|9=58|35=0|34=75|49=BVMF2|52=20131017-22:59:50.438|56=EXECUTOR3|10=024|
8=FIX.4.4|9=58|35=0|34=75|49=EXECUTOR3|52=20131017-22:59:53.768|56=BVMF2|10=033|
8=FIX.4.4|9=90|35=A|34=1|49=EXECUTOR3|52=20131017-23:00:13.206|56=BVMF2|95=6|96=PMANQE|98=0|108=30|141=Y|10=108|
8=FIX.4.4|9=75|35=A|34=1|49=BVMF2|52=20131017-23:00:13.258|56=EXECUTOR3|98=0|108=30|141=Y|10=037|
8=FIX.4.4|9=57|35=0|34=2|49=BVMF2|52=20131017-23:00:43.612|56=EXECUTOR3|10=204|
8=FIX.4.4|9=57|35=0|34=2|49=EXECUTOR3|52=20131017-23:00:43.616|56=BVMF2|10=208|
8=FIX.4.4|9=57|35=0|34=3|49=EXECUTOR3|52=20131017-23:01:14.193|56=BVMF2|10=208|
8=FIX.4.4|9=57|35=0|34=3|49=BVMF2|52=20131017-23:01:14.203|56=EXECUTOR3|10=200|
8=FIX.4.4|9=57|35=0|34=4|49=BVMF2|52=20131017-23:01:44.609|56=EXECUTOR3|10=214|
8=FIX.4.4|9=57|35=0|34=4|49=EXECUTOR3|52=20131017-23:01:44.610|56=BVMF2|10=206|
8=FIX.4.4|9=57|35=0|34=5|49=EXECUTOR3|52=20131017-23:02:15.186|56=BVMF2|10=214|
8=FIX.4.4|9=57|35=0|34=5|49=BVMF2|52=20131017-23:02:15.188|56=EXECUTOR3|10=216|
8=FIX.4.4|9=57|35=0|34=6|49=BVMF2|52=20131017-23:02:45.609|56=EXECUTOR3|10=218|
8=FIX.4.4|9=57|35=0|34=6|49=EXECUTOR3|52=20131017-23:02:45.611|56=BVMF2|10=211|
8=FIX.4.4|9=57|35=0|34=7|49=EXECUTOR3|52=20131017-23:03:16.186|56=BVMF2|10=218|
8=FIX.4.4|9=57|35=0|34=7|49=BVMF2|52=20131017-23:03:16.188|56=EXECUTOR3|10=220|
8=FIX.4.4|9=57|35=0|34=8|49=EXECUTOR3|52=20131017-23:03:46.186|56=BVMF2|10=222|
8=FIX.4.4|9=57|35=0|34=8|49=BVMF2|52=20131017-23:03:46.189|56=EXECUTOR3|10=225|
8=FIX.4.4|9=57|35=0|34=9|49=BVMF2|52=20131017-23:04:16.609|56=EXECUTOR3|10=221|
8=FIX.4.4|9=57|35=0|34=9|49=EXECUTOR3|52=20131017-23:04:16.611|56=BVMF2|10=214|
8=FIX.4.4|9=58|35=0|34=10|49=EXECUTOR3|52=20131017-23:04:47.185|56=BVMF2|10=009|
8=FIX.4.4|9=58|35=0|34=10|49=BVMF2|52=20131017-23:04:47.187|56=EXECUTOR3|10=011|
8=FIX.4.4|9=58|35=0|34=11|49=EXECUTOR3|52=20131017-23:05:17.186|56=BVMF2|10=009|
8=FIX.4.4|9=58|35=0|34=11|49=BVMF2|52=20131017-23:05:17.188|56=EXECUTOR3|10=011|
8=FIX.4.4|9=58|35=0|34=12|49=EXECUTOR3|52=20131017-23:05:47.187|56=BVMF2|10=014|
8=FIX.4.4|9=58|35=0|34=12|49=BVMF2|52=20131017-23:05:47.190|56=EXECUTOR3|10=008|
8=FIX.4.4|9=58|35=0|34=13|49=BVMF2|52=20131017-23:06:17.608|56=EXECUTOR3|10=011|
8=FIX.4.4|9=58|35=0|34=13|49=EXECUTOR3|52=20131017-23:06:17.610|56=BVMF2|10=004|
8=FIX.4.4|9=58|35=0|34=14|49=BVMF2|52=20131017-23:06:47.615|56=EXECUTOR3|10=013|
8=FIX.4.4|9=58|35=0|34=14|49=EXECUTOR3|52=20131017-23:06:47.618|56=BVMF2|10=016|
8=FIX.4.4|9=58|35=0|34=15|49=BVMF2|52=20131017-23:07:17.608|56=EXECUTOR3|10=014|
8=FIX.4.4|9=58|35=0|34=15|49=EXECUTOR3|52=20131017-23:07:18.186|56=BVMF2|10=016|
8=FIX.4.4|9=58|35=0|34=16|49=BVMF2|52=20131017-23:07:47.608|56=EXECUTOR3|10=018|
8=FIX.4.4|9=58|35=0|34=16|49=EXECUTOR3|52=20131017-23:07:48.186|56=BVMF2|10=020|
8=FIX.4.4|9=58|35=0|34=17|49=BVMF2|52=20131017-23:08:17.608|56=EXECUTOR3|10=017|
8=FIX.4.4|9=58|35=0|34=17|49=EXECUTOR3|52=20131017-23:08:18.186|56=BVMF2|10=019|
8=FIX.4.4|9=58|35=0|34=18|49=BVMF2|52=20131017-23:08:47.610|56=EXECUTOR3|10=014|
8=FIX.4.4|9=58|35=0|34=18|49=EXECUTOR3|52=20131017-23:08:49.186|56=BVMF2|10=024|
8=FIX.4.4|9=58|35=0|34=19|49=BVMF2|52=20131017-23:09:18.609|56=EXECUTOR3|10=022|
8=FIX.4.4|9=58|35=0|34=19|49=EXECUTOR3|52=20131017-23:09:19.186|56=BVMF2|10=023|
8=FIX.4.4|9=58|35=0|34=20|49=BVMF2|52=20131017-23:09:49.608|56=EXECUTOR3|10=017|
8=FIX.4.4|9=58|35=0|34=20|49=EXECUTOR3|52=20131017-23:09:49.611|56=BVMF2|10=011|
8=FIX.4.4|9=58|35=0|34=21|49=BVMF2|52=20131017-23:10:19.609|56=EXECUTOR3|10=008|
8=FIX.4.4|9=58|35=0|34=21|49=EXECUTOR3|52=20131017-23:10:19.612|56=BVMF2|10=002|
8=FIX.4.4|9=58|35=0|34=22|49=EXECUTOR3|52=20131017-23:10:50.185|56=BVMF2|10=003|
8=FIX.4.4|9=58|35=0|34=22|49=BVMF2|52=20131017-23:10:50.187|56=EXECUTOR3|10=005|
8=FIX.4.4|9=58|35=0|34=23|49=EXECUTOR3|52=20131017-23:11:20.186|56=BVMF2|10=003|
8=FIX.4.4|9=58|35=0|34=23|49=BVMF2|52=20131017-23:11:20.188|56=EXECUTOR3|10=005|
8=FIX.4.4|9=58|35=0|34=24|49=EXECUTOR3|52=20131017-23:11:50.200|56=BVMF2|10=250|
8=FIX.4.4|9=58|35=0|34=24|49=BVMF2|52=20131017-23:11:50.305|56=EXECUTOR3|10=000|
8=FIX.4.4|9=58|35=0|34=25|49=BVMF2|52=20131017-23:12:20.637|56=EXECUTOR3|10=007|
8=FIX.4.4|9=58|35=0|34=25|49=EXECUTOR3|52=20131017-23:12:20.641|56=BVMF2|10=002|
8=FIX.4.4|9=58|35=0|34=26|49=EXECUTOR3|52=20131017-23:12:51.186|56=BVMF2|10=011|
8=FIX.4.4|9=58|35=0|34=26|49=BVMF2|52=20131017-23:12:51.190|56=EXECUTOR3|10=006|
8=FIX.4.4|9=58|35=0|34=27|49=EXECUTOR3|52=20131017-23:13:21.186|56=BVMF2|10=010|
8=FIX.4.4|9=58|35=0|34=27|49=BVMF2|52=20131017-23:13:21.608|56=EXECUTOR3|10=009|
8=FIX.4.4|9=58|35=0|34=28|49=EXECUTOR3|52=20131017-23:13:51.186|56=BVMF2|10=014|
8=FIX.4.4|9=58|35=0|34=28|49=BVMF2|52=20131017-23:13:51.609|56=EXECUTOR3|10=014|
8=FIX.4.4|9=58|35=0|34=29|49=EXECUTOR3|52=20131017-23:14:21.187|56=BVMF2|10=014|
8=FIX.4.4|9=58|35=0|34=29|49=BVMF2|52=20131017-23:14:22.608|56=EXECUTOR3|10=013|
8=FIX.4.4|9=58|35=0|34=30|49=EXECUTOR3|52=20131017-23:14:52.186|56=BVMF2|10=009|
8=FIX.4.4|9=58|35=0|34=30|49=BVMF2|52=20131017-23:14:52.608|56=EXECUTOR3|10=008|
8=FIX.4.4|9=58|35=0|34=31|49=BVMF2|52=20131017-23:15:22.608|56=EXECUTOR3|10=007|
8=FIX.4.4|9=58|35=0|34=31|49=EXECUTOR3|52=20131017-23:15:22.610|56=BVMF2|10=000|
8=FIX.4.4|9=58|35=0|34=32|49=BVMF2|52=20131017-23:15:52.608|56=EXECUTOR3|10=011|
8=FIX.4.4|9=58|35=0|34=32|49=EXECUTOR3|52=20131017-23:15:52.610|56=BVMF2|10=004|
8=FIX.4.4|9=58|35=0|34=33|49=EXECUTOR3|52=20131017-23:16:23.185|56=BVMF2|10=011|
8=FIX.4.4|9=58|35=0|34=33|49=BVMF2|52=20131017-23:16:23.188|56=EXECUTOR3|10=014|
8=FIX.4.4|9=58|35=0|34=34|49=EXECUTOR3|52=20131017-23:16:53.187|56=BVMF2|10=017|
8=FIX.4.4|9=58|35=0|34=34|49=BVMF2|52=20131017-23:16:53.191|56=EXECUTOR3|10=012|
8=FIX.4.4|9=58|35=0|34=35|49=EXECUTOR3|52=20131017-23:17:23.186|56=BVMF2|10=015|
8=FIX.4.4|9=58|35=0|34=35|49=BVMF2|52=20131017-23:17:23.240|56=EXECUTOR3|10=006|
8=FIX.4.4|9=58|35=0|34=36|49=BVMF2|52=20131017-23:17:53.608|56=EXECUTOR3|10=018|
8=FIX.4.4|9=58|35=0|34=36|49=EXECUTOR3|52=20131017-23:17:53.708|56=BVMF2|10=019|
8=FIX.4.4|9=58|35=0|34=37|49=BVMF2|52=20131017-23:18:23.608|56=EXECUTOR3|10=017|
8=FIX.4.4|9=58|35=0|34=37|49=EXECUTOR3|52=20131017-23:18:24.187|56=BVMF2|10=020|
8=FIX.4.4|9=58|35=0|34=38|49=BVMF2|52=20131017-23:18:54.609|56=EXECUTOR3|10=023|
8=FIX.4.4|9=58|35=0|34=38|49=EXECUTOR3|52=20131017-23:18:54.612|56=BVMF2|10=017|
8=FIX.4.4|9=58|35=0|34=39|49=EXECUTOR3|52=20131017-23:19:25.186|56=BVMF2|10=023|
8=FIX.4.4|9=58|35=0|34=39|49=BVMF2|52=20131017-23:19:25.188|56=EXECUTOR3|10=025|
8=FIX.4.4|9=58|35=0|34=40|49=EXECUTOR3|52=20131017-23:19:55.186|56=BVMF2|10=018|
8=FIX.4.4|9=58|35=0|34=40|49=BVMF2|52=20131017-23:19:55.188|56=EXECUTOR3|10=020|
8=FIX.4.4|9=58|35=0|34=41|49=EXECUTOR3|52=20131017-23:20:25.186|56=BVMF2|10=008|
8=FIX.4.4|9=58|35=0|34=41|49=BVMF2|52=20131017-23:20:25.188|56=EXECUTOR3|10=010|
8=FIX.4.4|9=58|35=0|34=42|49=EXECUTOR3|52=20131017-23:20:55.186|56=BVMF2|10=012|
8=FIX.4.4|9=58|35=0|34=42|49=BVMF2|52=20131017-23:20:55.188|56=EXECUTOR3|10=014|
8=FIX.4.4|9=58|35=0|34=43|49=BVMF2|52=20131017-23:21:25.609|56=EXECUTOR3|10=011|
8=FIX.4.4|9=58|35=0|34=43|49=EXECUTOR3|52=20131017-23:21:25.611|56=BVMF2|10=004|
8=FIX.4.4|9=58|35=0|34=44|49=EXECUTOR3|52=20131017-23:21:56.188|56=BVMF2|10=018|
8=FIX.4.4|9=58|35=0|34=44|49=BVMF2|52=20131017-23:21:56.192|56=EXECUTOR3|10=013|
8=FIX.4.4|9=58|35=0|34=45|49=BVMF2|52=20131017-23:22:26.608|56=EXECUTOR3|10=014|
8=FIX.4.4|9=58|35=0|34=45|49=EXECUTOR3|52=20131017-23:22:26.614|56=BVMF2|10=011|
8=FIX.4.4|9=58|35=0|34=46|49=EXECUTOR3|52=20131017-23:22:57.186|56=BVMF2|10=020|
8=FIX.4.4|9=58|35=0|34=46|49=BVMF2|52=20131017-23:22:57.190|56=EXECUTOR3|10=015|
8=FIX.4.4|9=58|35=0|34=47|49=EXECUTOR3|52=20131017-23:23:27.186|56=BVMF2|10=019|
8=FIX.4.4|9=58|35=0|34=47|49=BVMF2|52=20131017-23:23:27.608|56=EXECUTOR3|10=018|
8=FIX.4.4|9=58|35=0|34=48|49=BVMF2|52=20131017-23:23:57.608|56=EXECUTOR3|10=022|
8=FIX.4.4|9=58|35=0|34=48|49=EXECUTOR3|52=20131017-23:23:57.612|56=BVMF2|10=017|
8=FIX.4.4|9=58|35=0|34=49|49=EXECUTOR3|52=20131017-23:24:28.185|56=BVMF2|10=022|
8=FIX.4.4|9=58|35=0|34=49|49=BVMF2|52=20131017-23:24:28.188|56=EXECUTOR3|10=025|
8=FIX.4.4|9=58|35=0|34=50|49=EXECUTOR3|52=20131017-23:24:58.185|56=BVMF2|10=017|
8=FIX.4.4|9=58|35=0|34=50|49=BVMF2|52=20131017-23:24:58.608|56=EXECUTOR3|10=017|
8=FIX.4.4|9=58|35=0|34=51|49=EXECUTOR3|52=20131017-23:25:28.186|56=BVMF2|10=017|
8=FIX.4.4|9=58|35=0|34=51|49=BVMF2|52=20131017-23:25:28.609|56=EXECUTOR3|10=017|
8=FIX.4.4|9=58|35=0|34=52|49=BVMF2|52=20131017-23:25:58.611|56=EXECUTOR3|10=014|
8=FIX.4.4|9=58|35=0|34=52|49=EXECUTOR3|52=20131017-23:25:58.766|56=BVMF2|10=025|
8=FIX.4.4|9=58|35=0|34=53|49=EXECUTOR3|52=20131017-23:26:29.186|56=BVMF2|10=021|
8=FIX.4.4|9=58|35=0|34=53|49=BVMF2|52=20131017-23:26:29.189|56=EXECUTOR3|10=024|
8=FIX.4.4|9=58|35=0|34=54|49=BVMF2|52=20131017-23:26:59.608|56=EXECUTOR3|10=024|
8=FIX.4.4|9=58|35=0|34=54|49=EXECUTOR3|52=20131017-23:26:59.610|56=BVMF2|10=017|
8=FIX.4.4|9=58|35=0|34=55|49=EXECUTOR3|52=20131017-23:27:30.185|56=BVMF2|10=015|
8=FIX.4.4|9=58|35=0|34=55|49=BVMF2|52=20131017-23:27:30.187|56=EXECUTOR3|10=017|
8=FIX.4.4|9=58|35=0|34=56|49=EXECUTOR3|52=20131017-23:28:00.185|56=BVMF2|10=014|
8=FIX.4.4|9=58|35=0|34=56|49=BVMF2|52=20131017-23:28:00.187|56=EXECUTOR3|10=016|
8=FIX.4.4|9=58|35=0|34=57|49=EXECUTOR3|52=20131017-23:28:30.187|56=BVMF2|10=020|
8=FIX.4.4|9=58|35=0|34=57|49=BVMF2|52=20131017-23:28:30.199|56=EXECUTOR3|10=023|
8=FIX.4.4|9=58|35=0|34=58|49=BVMF2|52=20131017-23:29:00.608|56=EXECUTOR3|10=017|
8=FIX.4.4|9=58|35=0|34=58|49=EXECUTOR3|52=20131017-23:29:00.609|56=BVMF2|10=018|
8=FIX.4.4|9=58|35=0|34=59|49=BVMF2|52=20131017-23:29:30.609|56=EXECUTOR3|10=022|
8=FIX.4.4|9=58|35=0|34=59|49=EXECUTOR3|52=20131017-23:29:30.611|56=BVMF2|10=015|
8=FIX.4.4|9=58|35=0|34=60|49=EXECUTOR3|52=20131017-23:30:01.186|56=BVMF2|10=004|
8=FIX.4.4|9=58|35=0|34=60|49=BVMF2|52=20131017-23:30:01.189|56=EXECUTOR3|10=007|
8=FIX.4.4|9=58|35=0|34=61|49=BVMF2|52=20131017-23:30:31.610|56=EXECUTOR3|10=000|
8=FIX.4.4|9=58|35=0|34=61|49=EXECUTOR3|52=20131017-23:30:31.612|56=BVMF2|10=002|
8=FIX.4.4|9=58|35=0|34=62|49=EXECUTOR3|52=20131017-23:31:02.185|56=BVMF2|10=007|
8=FIX.4.4|9=58|35=0|34=62|49=BVMF2|52=20131017-23:31:02.187|56=EXECUTOR3|10=009|
8=FIX.4.4|9=58|35=0|34=63|49=EXECUTOR3|52=20131017-23:31:32.186|56=BVMF2|10=012|
8=FIX.4.4|9=58|35=0|34=63|49=BVMF2|52=20131017-23:31:32.187|56=EXECUTOR3|10=013|
8=FIX.4.4|9=58|35=0|34=64|49=EXECUTOR3|52=20131017-23:32:02.186|56=BVMF2|10=011|
8=FIX.4.4|9=58|35=0|34=64|49=BVMF2|52=20131017-23:32:02.195|56=EXECUTOR3|10=011|
8=FIX.4.4|9=58|35=0|34=65|49=EXECUTOR3|52=20131017-23:32:32.186|56=BVMF2|10=015|
8=FIX.4.4|9=58|35=0|34=65|49=BVMF2|52=20131017-23:32:32.607|56=EXECUTOR3|10=013|
8=FIX.4.4|9=58|35=0|34=66|49=EXECUTOR3|52=20131017-23:33:02.186|56=BVMF2|10=014|
8=FIX.4.4|9=58|35=0|34=66|49=BVMF2|52=20131017-23:33:02.608|56=EXECUTOR3|10=013|
8=FIX.4.4|9=58|35=0|34=67|49=EXECUTOR3|52=20131017-23:33:32.186|56=BVMF2|10=018|
8=FIX.4.4|9=58|35=0|34=67|49=BVMF2|52=20131017-23:33:32.611|56=EXECUTOR3|10=011|
8=FIX.4.4|9=58|35=0|34=68|49=EXECUTOR3|52=20131017-23:34:02.186|56=BVMF2|10=017|
8=FIX.4.4|9=58|35=0|34=68|49=BVMF2|52=20131017-23:34:03.608|56=EXECUTOR3|10=017|
8=FIX.4.4|9=58|35=0|34=69|49=EXECUTOR3|52=20131017-23:34:32.186|56=BVMF2|10=021|
8=FIX.4.4|9=58|35=0|34=69|49=BVMF2|52=20131017-23:34:33.608|56=EXECUTOR3|10=021|
8=FIX.4.4|9=58|35=0|34=70|49=EXECUTOR3|52=20131017-23:35:03.186|56=BVMF2|10=012|
8=FIX.4.4|9=58|35=0|34=70|49=BVMF2|52=20131017-23:35:03.608|56=EXECUTOR3|10=011|
8=FIX.4.4|9=58|35=0|34=71|49=BVMF2|52=20131017-23:35:33.609|56=EXECUTOR3|10=016|
8=FIX.4.4|9=58|35=0|34=71|49=EXECUTOR3|52=20131017-23:35:33.615|56=BVMF2|10=013|
8=FIX.4.4|9=90|35=A|34=1|49=EXECUTOR3|52=20131017-23:36:05.348|56=BVMF2|95=6|96=PMANQE|98=0|108=30|141=Y|10=125|
8=FIX.4.4|9=75|35=A|34=1|49=BVMF2|52=20131017-23:36:05.434|56=EXECUTOR3|98=0|108=30|141=Y|10=043|
8=FIX.4.4|9=57|35=0|34=2|49=BVMF2|52=20131017-23:36:35.859|56=EXECUTOR3|10=227|
8=FIX.4.4|9=57|35=0|34=2|49=EXECUTOR3|52=20131017-23:36:35.866|56=BVMF2|10=225|
8=FIX.4.4|9=90|35=A|34=1|49=EXECUTOR3|52=20131017-23:36:57.904|56=BVMF2|95=6|96=PMANQE|98=0|108=30|141=Y|10=130|
8=FIX.4.4|9=75|35=A|34=1|49=BVMF2|52=20131017-23:36:57.919|56=EXECUTOR3|98=0|108=30|141=Y|10=058|
8=FIX.4.4|9=57|35=0|34=2|49=BVMF2|52=20131017-23:37:28.858|56=EXECUTOR3|10=229|
8=FIX.4.4|9=57|35=0|34=2|49=EXECUTOR3|52=20131017-23:37:28.865|56=BVMF2|10=227|
8=FIX.4.4|9=57|35=0|34=3|49=EXECUTOR3|52=20131017-23:37:58.884|56=BVMF2|10=232|
8=FIX.4.4|9=57|35=0|34=3|49=BVMF2|52=20131017-23:37:58.886|56=EXECUTOR3|10=234|
8=FIX.4.4|9=57|35=0|34=4|49=EXECUTOR3|52=20131017-23:38:28.884|56=BVMF2|10=231|
8=FIX.4.4|9=57|35=0|34=4|49=BVMF2|52=20131017-23:38:28.886|56=EXECUTOR3|10=233|
8=FIX.4.4|9=57|35=0|34=5|49=BVMF2|52=20131017-23:38:59.857|56=EXECUTOR3|10=236|
8=FIX.4.4|9=57|35=0|34=5|49=EXECUTOR3|52=20131017-23:38:59.858|56=BVMF2|10=237|
8=FIX.4.4|9=57|35=0|34=6|49=EXECUTOR3|52=20131017-23:39:29.884|56=BVMF2|10=235|
8=FIX.4.4|9=57|35=0|34=6|49=BVMF2|52=20131017-23:39:29.891|56=EXECUTOR3|10=233|
8=FIX.4.4|9=57|35=0|34=7|49=BVMF2|52=20131017-23:40:00.857|56=EXECUTOR3|10=217|
8=FIX.4.4|9=57|35=0|34=7|49=EXECUTOR3|52=20131017-23:40:00.859|56=BVMF2|10=219|
8=FIX.4.4|9=57|35=0|34=8|49=BVMF2|52=20131017-23:40:30.857|56=EXECUTOR3|10=221|
8=FIX.4.4|9=57|35=0|34=8|49=EXECUTOR3|52=20131017-23:40:30.863|56=BVMF2|10=218|
8=FIX.4.4|9=57|35=0|34=9|49=BVMF2|52=20131017-23:41:00.857|56=EXECUTOR3|10=220|
8=FIX.4.4|9=57|35=0|34=9|49=EXECUTOR3|52=20131017-23:41:00.870|56=BVMF2|10=215|
