8=FIX.4.2|9=72|35=A|34=1|49=EXECUTOR|52=20130830-03:24:51.037|56=BOV|98=0|108=30|141=Y|10=122|
8=FIX.4.2|9=72|35=A|34=1|49=BOV|52=20130830-03:24:51.099|56=EXECUTOR|98=0|108=30|141=Y|10=130|
