8=FIX.4.4|9=90|35=A|34=1|49=EXECUTOR3|52=20131017-23:36:57.904|56=BVMF2|95=6|96=PMANQE|98=0|108=30|141=Y|10=130|8=FIX.4.4|9=57|35=0|34=2|49=EXECUTOR3|52=20131017-23:37:28.865|56=BVMF2|10=227|8=FIX.4.4|9=57|35=0|34=3|49=EXECUTOR3|52=20131017-23:37:58.884|56=BVMF2|10=232|8=FIX.4.4|9=57|35=0|34=4|49=EXECUTOR3|52=20131017-23:38:28.884|56=BVMF2|10=231|8=FIX.4.4|9=57|35=0|34=5|49=EXECUTOR3|52=20131017-23:38:59.858|56=BVMF2|10=237|8=FIX.4.4|9=57|35=0|34=6|49=EXECUTOR3|52=20131017-23:39:29.884|56=BVMF2|10=235|8=FIX.4.4|9=57|35=0|34=7|49=EXECUTOR3|52=20131017-23:40:00.859|56=BVMF2|10=219|8=FIX.4.4|9=57|35=0|34=8|49=EXECUTOR3|52=20131017-23:40:30.863|56=BVMF2|10=218|8=FIX.4.4|9=57|35=0|34=9|49=EXECUTOR3|52=20131017-23:41:00.870|56=BVMF2|10=215|